:0400000007EF00F016
:10000800198298ED01F0C5EF01F0000E176E57EF59
:1000180000F0000E0C6E000E0B6E72EF00F0010E79
:100028000C6E000E0B6ED5EC00F0000E046E000E88
:10003800036EFF0E0524016EFF0E0620026EF08689
:1000480072EF00F0010E0C6E000E0B6E7CEC01F0EE
:1000580072EF00F0000E0C6E010E0B6E000E046EB7
:10006800000E036E000E026E310E016E23EF00F0DB
:10007800000E0C6E010E0B6E2AEF00F0000E0C6ED7
:10008800000E0B6E000E046E000E036E000E026E64
:10009800000E016EF096000E096E72EF00F0010E70
:1000A800176E72EF00F01850410AD8B40DEF00F047
:1000B800030AD8B413EF00F0010AD8B426EF00F011
:1000C800070AD8B42EEF00F0010AD8B43CEF00F0CC
:1000D800030AD8B442EF00F053EF00F017501200B3
:1000E800000E176ED5EC00F00A04D8A47EEF00F0DD
:1000F80080EF00F0D3EF00F0B6EF00F00904D8A4C9
:1001080088EF00F08AEF00F0D1EF00F0420E186E91
:10011800D1EF00F0430E186ED1EF00F00704D8A419
:1001280098EF00F09AEF00F0D1EF00F0440E186E4F
:10013800D1EF00F0450E186ED1EF00F00704D8A4F7
:10014800A8EF00F0AAEF00F0D1EF00F0460E186E0D
:10015800D1EF00F0410E186ED1EF00F0010E176ECE
:10016800D1EF00F01850410AD8B482EF00F0030A2A
:10017800D8B48EEF00F0010AD8B492EF00F0070A65
:10018800D8B49EEF00F0010AD8B4A2EF00F0030A39
:10019800D8B4AEEF00F0B2EF00F0000E0A6E1750C0
:1001A8001200000E126E000E116E000E166E000E7A
:1001B800156E000E146E000E136E80500F0B0D6E30
:1001C8000E6A0D3A0E3AF00E0E160D500F0B0E1267
:1001D800F00E0D160DC00FF00EC010F08150F00B90
:1001E8000D6E0E6A0D3A0E3AF00E0E160D500F0BEC
:1001F8000E12F00E0D160DC011F00EC012F082CFC7
:1002080015F0166AF00E15140D6E000E16140E6E0B
:100218000DC00EF00D6A0DC013F00EC014F00F0ED5
:100228001514156E166A11500F100D6E125010101D
:100238000E6E15500D1216500E1213500D10056E3D
:1002480014500E10066E1200000E806E000E896E9D
:100258000F0EC16E0F0E926E000E816E000E8A6E2A
:10026800F30E936E000E826E000E8B6E9468000E75
:10027800836E000E8C6E000E956E000E846E000E5E
:100288008D6E000E966EF19CF288F18AF096F28ED1
:10029800000E0C6E000E0B6E000E096E000E0A6E3C
:1002A800000E086E410E186E120028EC01F074EC76
:1002B80000F00009D8B463EF01F065EF01F067EFD3
:1002C80001F077EF01F009EC00F00009D8B46FEF06
:1002D80001F071EF01F073EF01F077EF01F0B1EC8D
:1002E80001F05BEF01F000F077EF01F007EF00F0AD
:1002F8000A04D8A482EF01F084EF01F097EF01F02F
:100308000150035C02500458D8B08DEF01F08FEF14
:1003180001F093EF01F0034A042A95EF01F0010E72
:10032800076E000E0A6E12000600F29EF0A09FEF04
:1003380001F0A1EF01F0A4EF01F0010E0A6EF090B8
:10034800F2A2A9EF01F0ABEF01F0AEEF01F0010E60
:10035800096EF292F28E199211008150F30B0E6E13
:100368000BC00DF0D8900D36D8900D36D8900D36BC
:100378000C44E846FC0B0D100E100E6E0EC081FFEB
:10038800120000EE01F00C0EEE6AE806FDE119908D
:0C0398001992000EF86E000159EF01F000
:020000040020DA
:08000000FFFFFFFFFFFFFFFF00
:020000040030CA
:0E000000FF011E1EFF8181FF0FC00FE00F40A9
:00000001FF
