:0400000007EF00F016
:10000800088292ED01F06DEF01F0000E076EA1EC91
:1000180001F00104D8A413EF00F015EF00F0C2EFCF
:1000280000F095EF00F00504D8A41DEF00F01FEFD5
:1000380000F023EF00F0420E066EC0EF00F0410E14
:10004800066EC0EF00F00504D8A42DEF00F02FEFE6
:1000580000F01FEF00F0430E066EC0EF00F005043D
:10006800D8A439EF00F03BEF00F0C0EF00F0440EE9
:10007800066EC0EF00F00504D8A445EF00F047EF86
:1000880000F0C0EF00F0450E066EC0EF00F005046A
:10009800D8A451EF00F053EF00F0C0EF00F0460E87
:1000A800066EC0EF00F00504D8A45DEF00F05FEF26
:1000B80000F0C0EF00F0470E066EC0EF00F0050438
:1000C800D8A469EF00F06BEF00F0C0EF00F0480E25
:1000D800066EC0EF00F00504D8A475EF00F077EFC6
:1000E80000F0C0EF00F0490E066EC0EF00F0050406
:1000F800D8A481EF00F083EF00F0C0EF00F04A0EC3
:10010800066EC0EF00F00504D8A48DEF00F08FEF65
:1001180000F0C0EF00F023EF00F0010E076EC0EF13
:1001280000F00650410AD8B417EF00F0030AD8B41B
:1001380027EF00F0010AD8B433EF00F0070AD8B46B
:100148003FEF00F0010AD8B44BEF00F0030AD8B42F
:1001580057EF00F0010AD8B463EF00F00F0AD8B4E3
:100168006FEF00F0010AD8B47BEF00F0030AD8B4AF
:1001780087EF00F091EF00F0000E016E07501200BB
:10018800000E076EF4EF00F0000E036E1FEF01F093
:10019800010E036E1FEF01F0020E036E1FEF01F058
:1001A800030E036E1FEF01F0040E036E1FEF01F044
:1001B800050E036E1FEF01F0060E036E1FEF01F030
:1001C800070E036E1FEF01F0080E036E1FEF01F01C
:1001D800090E036E1FEF01F0010E076E1FEF01F00D
:1001E8000650410AD8B4C8EF00F0030AD8B4CCEFDF
:1001F80000F0010AD8B4D0EF00F0070AD8B4D4EF61
:1002080000F0010AD8B4D8EF00F0030AD8B4DCEF44
:1002180000F0010AD8B4E0EF00F00F0AD8B4E4EF18
:1002280000F0010AD8B4E8EF00F0030AD8B4ECEF04
:1002380000F0F0EF00F04A0E0618D8A426EF01F0FF
:1002480028EF01F034EF01F00504D8A42EEF01F0F7
:1002580030EF01F034EF01F0010E046E36EF01F0DB
:10026800000E046E82EC01F00750120057EC01F00A
:1002780009EC00F00009D8B444EF01F046EF01F0B2
:1002880048EF01F052EF01F0C4EC00F00009D8B4D7
:1002980050EF01F052EF01F03CEF01F000F052EFA7
:1002A80001F007EF00F00F0EC16E000E816E000E18
:1002B8008A6E030E936E000E836E000E8C6E000E17
:1002C800956EF19CF288D09EF29CF28E000E016E23
:1002D80012004C0EF66E030EF76E000EF86E090053
:1002E800F5CF06F0056A046A036A026A016A089093
:1002F8000892000EF86E00013AEF01F08150FB0BF6
:10030800026E0444E846FC0B0210816E83500F0B0A
:10031800026E0338F00B0210836E12000600F29E84
:10032800F2A299EF01F09BEF01F09EEF01F0010EB0
:10033800016EF292F28E08921100D8908130010B72
:05034800056E120041EA
:020000040020DA
:08000000FFFFFFFFFFFFFFFF00
:020000040030CA
:0E000000FF011E1EFF8181FF0FC00FE00F40A9
:00000001FF
