:040000004BEF3FF093
:107E96000D6A0C6A0B6A0A6A096A086A000154EFDD
:107EA6003FF060EC3FF07EEC3FF09CEC3FF0CEEC18
:107EB6003FF056EF3FF000EF00F0000E806E000E30
:107EC600896E0F0EC16E9268000E806E000E8A6E6D
:107ED6009368000E816E000E8A6E9368000E826EA5
:107EE600000E8A6E1F0E936E000E836E000E8A6E53
:107EF6009368F29E120081500F0B026E02C006F0CC
:107F060080500F0B076E8250070B026E0250010B5A
:107F1600016E01C003F00250020B016ED8900130D1
:107F2600046E0250040B016E0140E8423F0B056EE1
:107F360012000750065CD8B0A3EF3FF0A5EF3FF064
:107F4600ADEF3FF0010E0D6E000E0C6E010E0B6EC6
:107F5600CDEF3FF00650075CD8B0B4EF3FF0B6EF78
:107F66003FF0BEEF3FF0000E0D6E000E0C6E010EE0
:107F76000B6ECDEF3FF006500718D8A4C5EF3FF0C3
:107F8600C7EF3FF0CDEF3FF005C00DF004C00CF099
:107F960003C00BF012000B38E846E00B026E0C40F3
:107FA600E842C00B016E0D40800B0A6E82501F0B1B
:107FB600096E0A50011002100910086E0B04D8B49D
:107FC600E7EF3FF0EAEF3FF0828AEBEF3FF0829A6D
:107FD6000C04D8B4F1EF3FF0F4EF3FF0828CF5EFEC
:107FE6003FF0829C0D04D8B4FBEF3FF0FEEF3FF06C
:0A7FF600828EFFEF3FF0829E120022
:020000040020DA
:08000000FFFFFFFFFFFFFFFF00
:020000040030CA
:0E000000FF011E1EFF8181FF0FC00FE00F40A9
:00000001FF
