:0400000067EF3FF077
:107ECE000D6A0C6A0B6A0A6A096A086A000170EF89
:107EDE003FF092EC3FF0B0EC3FF0CEEC3FF07CEC9C
:107EEE003FF072EF3FF000EF00F00B38E846E00B8A
:107EFE00026E0C40E842C00B016E0D40800B0A6E04
:107F0E0082501F0B096E0A50011002100910086EE4
:107F1E0008C082FF1200000E806E000E896E0F0EDA
:107F2E00C16E9268000E806E000E8A6E9368000E0F
:107F3E00816E000E8A6E9368000E826E000E8A6E3F
:107F4E001F0E936E000E836E000E8A6E9368F29E65
:107F5E00120081500F0B026E02C006F080500F0B04
:107F6E00076E8250070B026E0250010B016E01C0AC
:107F7E0003F00250020B016ED8900130046E0250D5
:107F8E00040B016E0140E8423F0B056E12000750D4
:107F9E00065CD8B0D5EF3FF0D7EF3FF0DFEF3FF004
:107FAE00010E0D6E000E0C6E010E0B6EFFEF3FF00C
:107FBE000650075CD8B0E6EF3FF0E8EF3FF0F0EF89
:107FCE003FF0000E0D6E000E0C6E010E0B6EFFEFED
:107FDE003FF006500718D8A4F7EF3FF0F9EF3FF047
:107FEE00FFEF3FF005C00DF004C00CF003C00BF026
:027FFE0012006F
:020000040020DA
:08000000FFFFFFFFFFFFFFFF00
:020000040030CA
:0E000000FF011E1EFF8181FF0FC00FE00F40A9
:00000001FF
