:040000002CEF3FF0B2
:107E58000B6A0A6A096A000132EF3FF03EEC3FF014
:107E6800B7EC3FF085EC3FF060EC3FF034EF3FF0CB
:107E780000EF00F0000E806E000E896E0F0EC16ECE
:107E8800300E926E000E806E000E8A6EC00E936EDB
:107E9800000E816E000E8A6EF80E936E000E826ED2
:107EA800000E8A6EC00E936E000E836E000E8A6EF0
:107EB800C00E936EF29E12008150FB0B036E0B44B2
:107EC800E846FC0B026E02500310026E02C081FFEE
:107ED8008050F70B036E0A38E842F80B026E025026
:107EE8000310026E02C080FF8250DF0B036E093858
:107EF800E846E00B026E02500310026E02C082FFD9
:107F080012000850075CD8B08CEF3FF08EEF3FF0BE
:107F180096EF3FF0310E0B6E300E0A6E300E096E82
:107F2800B6EF3FF00750085CD8B09DEF3FF09FEFE9
:107F38003FF0A7EF3FF0300E0B6E300E0A6E310E99
:107F4800096EB6EF3FF007500818D8A4AEEF3FF01F
:107F5800B0EF3FF0B6EF3FF006C00BF005C00AF0F7
:107F680004C009F012008150F80B036E0350200B77
:107F7800026E0238E842070B066E0350100B026EC1
:107F880002380F0B056E0350080B026E0238E846E4
:107F98001F0B046E0350C00B026E02380F0B026EEB
:107FA8008350810B026E0350800B016E0144E8463A
:107FB800030B016E0350010B036E035002100110F6
:107FC800076E8250C00B036E0350C00B026E02385E
:107FD8000F0B026E8050810B026E0350800B016EF6
:107FE8000144E846030B016E0350010B036E035076
:087FF80002100110086E1200D6
:020000040020DA
:08000000FFFFFFFFFFFFFFFF00
:020000040030CA
:0E000000FF011E1EFF8181FF0FC00FE00F40A9
:00000001FF
