:040000002FEF3FF0AF
:107E5E000B6A000133EF3FF059EC3FF077EC3FF047
:107E6E00ABEC3FF03FEC3FF035EF3FF000EF00F0B2
:107E7E000BC009F0020E0916060E0A6ED8900936CE
:107E8E000A2E45EF3FF00950026E0BC009F0010EAD
:107E9E000916D8900936D8900934016E0250011097
:107EAE00816E1200000E806E000E896E0F0EC16E76
:107EBE00380E926E000E816E000E8A6E0B0E936E51
:107ECE00000E826E000E8B6EC80E946E000E836EC8
:107EDE00000E8C6E0C0E956EF29E000E0B6E120046
:107EEE0082CF02F00250080B026E0250FF0A080BFE
:107EFE00026E0238E8461F0B086E80CF02F0025069
:107F0E00180B026E0238E8461F0B046E83CF02F088
:107F1E000240E8423F0B030B056E82CF02F0024493
:107F2E00E846030B030B066E8138E8461F0B010B68
:107F3E00026E80380F0B020B016E02500110076E9D
:107F4E008150030B036E12000350D8A4B1EF3FF023
:107F5E00B3EF3FF0BFEF3FF00804D8A4B9EF3FF006
:107F6E00BBEF3FF0BFEF3FF007C00BF0FFEF3FF06E
:107F7E000304D8A4C5EF3FF0C7EF3FF0D3EF3FF0B7
:107F8E000804D8A4CDEF3FF0CFEF3FF0D3EF3FF092
:107F9E0006C00BF0FFEF3FF0020E0318D8A4DAEF85
:107FAE003FF0DCEF3FF0E8EF3FF00804D8A4E2EF3B
:107FBE003FF0E4EF3FF0E8EF3FF005C00BF0FFEFCE
:107FCE003FF0030E0318D8A4EFEF3FF0F1EF3FF0B0
:107FDE00FDEF3FF00804D8A4F7EF3FF0F9EF3FF0C4
:107FEE00FDEF3FF004C00BF0FFEF3FF0000E0B6E05
:027FFE0012006F
:020000040020DA
:08000000FFFFFFFFFFFFFFFF00
:020000040030CA
:0E000000FF011E1EFF8181FF0FC00FE00F40A9
:00000001FF
