:0400000007EF00F016
:100008000D820EED01F027EF01F0000E0C6E48ECAA
:1000180001F049EF00F00604D8A415EF00F017EF3F
:1000280000F01DEF00F0420E0B6E000E066E5CEF46
:1000380000F0410E0B6E5CEF00F0430E0B6E5CEFB0
:1000480000F00504D8A42BEF00F02DEF00F033EFFB
:1000580000F0440E0B6E000E056E5CEF00F0060417
:10006800D8A439EF00F03BEF00F021EF00F00A04CC
:10007800D8A441EF00F043EF00F021EF00F017EFB4
:1000880000F0010E0C6E5CEF00F00B50410AD8B482
:100098000FEF00F0030AD8B421EF00F0010AD8B43A
:1000A80025EF00F0070AD8B41DEF00F045EF00F087
:1000B8000C501200000E0C6E88EF00F0000E096E56
:1000C8009BEF00F0010E096E030E026E9C0E016E8E
:1000D800000E046E000E036EF086000E056E9BEF98
:1000E80000F0010E096E9BEF00F0000E096E000E85
:1000F800046E000E036EF096000E056E9BEF00F086
:10010800010E0C6E9BEF00F00B50410AD8B462EF61
:1001180000F0030AD8B466EF00F0010AD8B475EF0E
:1001280000F0070AD8B479EF00F084EF00F00C5023
:100138001200000E806E000E896E0F0EC16E100E3A
:10014800926E000E816E000E8A6E030E936E000E84
:10015800826E000E8B6E000E946E000E836E000E83
:100168008C6E000E956E000E846E000E8D6E000E65
:10017800966EF19CF288F18AF096F28E000E096E66
:10018800000E066E000E056E12009DEC00F009ECE4
:1001980000F00009D8B4D3EF00F0D5EF00F0D7EFA6
:1001A80000F0E9EF00F05EEC00F00009D8B4DFEFF2
:1001B80000F0E1EF00F0E3EF00F0E9EF00F0EEEC23
:1001C80000F03DEC01F0CBEF00F000F0E9EF00F0BB
:1001D80007EF00F00704D8A4F4EF00F0F6EF00F002
:1001E8000DEF01F00150035C02500458D8B0FFEF46
:1001F80000F001EF01F005EF01F0034A042A0BEFCC
:1002080001F0010E056E000E046E000E036E000E66
:10021800076E12000600F29EF0A015EF01F017EF2E
:1002280001F01AEF01F0010E076EF090F2A21FEF35
:1002380001F021EF01F024EF01F0010E066EF292B9
:10024800F28E0D9211009A0EF66E020EF76E000EE7
:10025800F86E0900F5CF0BF000EE01F00A0EEE6A19
:10026800E806FDE10D900D92000EF86E0001C9EF51
:1002780000F08150F70B0C6E0938E842F80B0C10AF
:10028800816E09C008F0120080380F0B010B0A6E4E
:0302980012004110
:020000040020DA
:08000000FFFFFFFFFFFFFFFF00
:020000040030CA
:0E000000FF011E1EFF8181FF0FC00FE00F40A9
:00000001FF
